{
  "_format": "hh-sol-artifact-1",
  "contractName": "ZombieOwnership",
  "sourceName": "contracts/ZombieOwnership.sol",
  "abi": [
    {
      "anonymous": false,
      "inputs": [
        {
          "indexed": true,
          "internalType": "address",
          "name": "owner",
          "type": "address"
        },
        {
          "indexed": true,
          "internalType": "address",
          "name": "approved",
          "type": "address"
        },
        {
          "indexed": true,
          "internalType": "uint256",
          "name": "tokenId",
          "type": "uint256"
        }
      ],
      "name": "Approval",
      "type": "event"
    },
    {
      "anonymous": false,
      "inputs": [
        {
          "indexed": true,
          "internalType": "address",
          "name": "owner",
          "type": "address"
        },
        {
          "indexed": true,
          "internalType": "address",
          "name": "operator",
          "type": "address"
        },
        {
          "indexed": false,
          "internalType": "bool",
          "name": "approved",
          "type": "bool"
        }
      ],
      "name": "ApprovalForAll",
      "type": "event"
    },
    {
      "anonymous": false,
      "inputs": [
        {
          "components": [
            {
              "internalType": "string",
              "name": "name",
              "type": "string"
            },
            {
              "internalType": "uint256",
              "name": "dna",
              "type": "uint256"
            },
            {
              "internalType": "uint32",
              "name": "level",
              "type": "uint32"
            },
            {
              "internalType": "uint32",
              "name": "readyTime",
              "type": "uint32"
            },
            {
              "internalType": "uint16",
              "name": "winCount",
              "type": "uint16"
            },
            {
              "internalType": "uint256",
              "name": "loseCount",
              "type": "uint256"
            }
          ],
          "indexed": false,
          "internalType": "struct ZombieFactory.Zombie[]",
          "name": "",
          "type": "tuple[]"
        }
      ],
      "name": "Log",
      "type": "event"
    },
    {
      "anonymous": false,
      "inputs": [
        {
          "indexed": false,
          "internalType": "uint256",
          "name": "zombieId",
          "type": "uint256"
        },
        {
          "indexed": false,
          "internalType": "string",
          "name": "name",
          "type": "string"
        },
        {
          "indexed": false,
          "internalType": "uint256",
          "name": "dna",
          "type": "uint256"
        }
      ],
      "name": "NewZombie",
      "type": "event"
    },
    {
      "anonymous": false,
      "inputs": [
        {
          "indexed": true,
          "internalType": "address",
          "name": "previousOwner",
          "type": "address"
        },
        {
          "indexed": true,
          "internalType": "address",
          "name": "newOwner",
          "type": "address"
        }
      ],
      "name": "OwnershipTransferred",
      "type": "event"
    },
    {
      "anonymous": false,
      "inputs": [
        {
          "indexed": true,
          "internalType": "address",
          "name": "from",
          "type": "address"
        },
        {
          "indexed": true,
          "internalType": "address",
          "name": "to",
          "type": "address"
        },
        {
          "indexed": true,
          "internalType": "uint256",
          "name": "tokenId",
          "type": "uint256"
        }
      ],
      "name": "Transfer",
      "type": "event"
    },
    {
      "inputs": [
        {
          "internalType": "address",
          "name": "_to",
          "type": "address"
        },
        {
          "internalType": "uint256",
          "name": "_tokenId",
          "type": "uint256"
        }
      ],
      "name": "approve",
      "outputs": [],
      "stateMutability": "nonpayable",
      "type": "function"
    },
    {
      "inputs": [
        {
          "internalType": "uint256",
          "name": "_zombieId",
          "type": "uint256"
        },
        {
          "internalType": "uint256",
          "name": "_targetId",
          "type": "uint256"
        }
      ],
      "name": "attack",
      "outputs": [],
      "stateMutability": "nonpayable",
      "type": "function"
    },
    {
      "inputs": [
        {
          "internalType": "address",
          "name": "_owner",
          "type": "address"
        }
      ],
      "name": "balanceOf",
      "outputs": [
        {
          "internalType": "uint256",
          "name": "_balance",
          "type": "uint256"
        }
      ],
      "stateMutability": "view",
      "type": "function"
    },
    {
      "inputs": [
        {
          "internalType": "uint256",
          "name": "_zombieId",
          "type": "uint256"
        },
        {
          "internalType": "uint256",
          "name": "_newDna",
          "type": "uint256"
        }
      ],
      "name": "changDna",
      "outputs": [],
      "stateMutability": "nonpayable",
      "type": "function"
    },
    {
      "inputs": [
        {
          "internalType": "uint256",
          "name": "_zombieId",
          "type": "uint256"
        },
        {
          "internalType": "string",
          "name": "_newName",
          "type": "string"
        }
      ],
      "name": "changeName",
      "outputs": [],
      "stateMutability": "nonpayable",
      "type": "function"
    },
    {
      "inputs": [
        {
          "internalType": "string",
          "name": "_name",
          "type": "string"
        }
      ],
      "name": "createRandomZombie",
      "outputs": [],
      "stateMutability": "nonpayable",
      "type": "function"
    },
    {
      "inputs": [
        {
          "internalType": "uint256",
          "name": "_zombieId",
          "type": "uint256"
        },
        {
          "internalType": "uint256",
          "name": "_kittyId",
          "type": "uint256"
        }
      ],
      "name": "feedOnKitty",
      "outputs": [],
      "stateMutability": "nonpayable",
      "type": "function"
    },
    {
      "inputs": [
        {
          "internalType": "uint256",
          "name": "tokenId",
          "type": "uint256"
        }
      ],
      "name": "getApproved",
      "outputs": [
        {
          "internalType": "address",
          "name": "",
          "type": "address"
        }
      ],
      "stateMutability": "view",
      "type": "function"
    },
    {
      "inputs": [],
      "name": "getZombie",
      "outputs": [
        {
          "components": [
            {
              "internalType": "string",
              "name": "name",
              "type": "string"
            },
            {
              "internalType": "uint256",
              "name": "dna",
              "type": "uint256"
            },
            {
              "internalType": "uint32",
              "name": "level",
              "type": "uint32"
            },
            {
              "internalType": "uint32",
              "name": "readyTime",
              "type": "uint32"
            },
            {
              "internalType": "uint16",
              "name": "winCount",
              "type": "uint16"
            },
            {
              "internalType": "uint256",
              "name": "loseCount",
              "type": "uint256"
            }
          ],
          "internalType": "struct ZombieFactory.Zombie[]",
          "name": "",
          "type": "tuple[]"
        }
      ],
      "stateMutability": "view",
      "type": "function"
    },
    {
      "inputs": [],
      "name": "getZombies",
      "outputs": [
        {
          "components": [
            {
              "internalType": "string",
              "name": "name",
              "type": "string"
            },
            {
              "internalType": "uint256",
              "name": "dna",
              "type": "uint256"
            },
            {
              "internalType": "uint32",
              "name": "level",
              "type": "uint32"
            },
            {
              "internalType": "uint32",
              "name": "readyTime",
              "type": "uint32"
            },
            {
              "internalType": "uint16",
              "name": "winCount",
              "type": "uint16"
            },
            {
              "internalType": "uint256",
              "name": "loseCount",
              "type": "uint256"
            }
          ],
          "internalType": "struct ZombieFactory.Zombie[]",
          "name": "",
          "type": "tuple[]"
        }
      ],
      "stateMutability": "view",
      "type": "function"
    },
    {
      "inputs": [
        {
          "internalType": "address",
          "name": "_owner",
          "type": "address"
        }
      ],
      "name": "getZombiesByOwner",
      "outputs": [
        {
          "internalType": "uint256[]",
          "name": "",
          "type": "uint256[]"
        }
      ],
      "stateMutability": "nonpayable",
      "type": "function"
    },
    {
      "inputs": [
        {
          "internalType": "address",
          "name": "_owner",
          "type": "address"
        },
        {
          "internalType": "address",
          "name": "operator",
          "type": "address"
        }
      ],
      "name": "isApprovedForAll",
      "outputs": [
        {
          "internalType": "bool",
          "name": "",
          "type": "bool"
        }
      ],
      "stateMutability": "view",
      "type": "function"
    },
    {
      "inputs": [
        {
          "internalType": "uint256",
          "name": "_zombieId",
          "type": "uint256"
        }
      ],
      "name": "levelUp",
      "outputs": [],
      "stateMutability": "payable",
      "type": "function"
    },
    {
      "inputs": [],
      "name": "name",
      "outputs": [
        {
          "internalType": "string",
          "name": "",
          "type": "string"
        }
      ],
      "stateMutability": "view",
      "type": "function"
    },
    {
      "inputs": [
        {
          "internalType": "address",
          "name": "",
          "type": "address"
        },
        {
          "internalType": "address",
          "name": "",
          "type": "address"
        }
      ],
      "name": "operatorApprovals",
      "outputs": [
        {
          "internalType": "bool",
          "name": "",
          "type": "bool"
        }
      ],
      "stateMutability": "view",
      "type": "function"
    },
    {
      "inputs": [],
      "name": "owner",
      "outputs": [
        {
          "internalType": "address",
          "name": "",
          "type": "address"
        }
      ],
      "stateMutability": "view",
      "type": "function"
    },
    {
      "inputs": [
        {
          "internalType": "uint256",
          "name": "_tokenId",
          "type": "uint256"
        }
      ],
      "name": "ownerOf",
      "outputs": [
        {
          "internalType": "address",
          "name": "_owner",
          "type": "address"
        }
      ],
      "stateMutability": "view",
      "type": "function"
    },
    {
      "inputs": [],
      "name": "renounceOwnership",
      "outputs": [],
      "stateMutability": "nonpayable",
      "type": "function"
    },
    {
      "inputs": [
        {
          "internalType": "address",
          "name": "from",
          "type": "address"
        },
        {
          "internalType": "address",
          "name": "to",
          "type": "address"
        },
        {
          "internalType": "uint256",
          "name": "tokenId",
          "type": "uint256"
        }
      ],
      "name": "safeTransferFrom",
      "outputs": [],
      "stateMutability": "nonpayable",
      "type": "function"
    },
    {
      "inputs": [
        {
          "internalType": "address",
          "name": "from",
          "type": "address"
        },
        {
          "internalType": "address",
          "name": "to",
          "type": "address"
        },
        {
          "internalType": "uint256",
          "name": "tokenId",
          "type": "uint256"
        },
        {
          "internalType": "bytes",
          "name": "data",
          "type": "bytes"
        }
      ],
      "name": "safeTransferFrom",
      "outputs": [],
      "stateMutability": "nonpayable",
      "type": "function"
    },
    {
      "inputs": [
        {
          "internalType": "address",
          "name": "operator",
          "type": "address"
        },
        {
          "internalType": "bool",
          "name": "approved",
          "type": "bool"
        }
      ],
      "name": "setApprovalForAll",
      "outputs": [],
      "stateMutability": "nonpayable",
      "type": "function"
    },
    {
      "inputs": [
        {
          "internalType": "address",
          "name": "_address",
          "type": "address"
        }
      ],
      "name": "setKittyContractAddress",
      "outputs": [],
      "stateMutability": "nonpayable",
      "type": "function"
    },
    {
      "inputs": [
        {
          "internalType": "uint256",
          "name": "_fee",
          "type": "uint256"
        }
      ],
      "name": "setLevelUpFee",
      "outputs": [],
      "stateMutability": "nonpayable",
      "type": "function"
    },
    {
      "inputs": [
        {
          "internalType": "bytes4",
          "name": "interfaceId",
          "type": "bytes4"
        }
      ],
      "name": "supportsInterface",
      "outputs": [
        {
          "internalType": "bool",
          "name": "",
          "type": "bool"
        }
      ],
      "stateMutability": "pure",
      "type": "function"
    },
    {
      "inputs": [],
      "name": "symbol",
      "outputs": [
        {
          "internalType": "string",
          "name": "",
          "type": "string"
        }
      ],
      "stateMutability": "view",
      "type": "function"
    },
    {
      "inputs": [
        {
          "internalType": "uint256",
          "name": "_tokenId",
          "type": "uint256"
        }
      ],
      "name": "takeOwnership",
      "outputs": [],
      "stateMutability": "nonpayable",
      "type": "function"
    },
    {
      "inputs": [
        {
          "internalType": "uint256",
          "name": "tokenId",
          "type": "uint256"
        }
      ],
      "name": "tokenURI",
      "outputs": [
        {
          "internalType": "string",
          "name": "",
          "type": "string"
        }
      ],
      "stateMutability": "view",
      "type": "function"
    },
    {
      "inputs": [
        {
          "internalType": "address",
          "name": "_form",
          "type": "address"
        },
        {
          "internalType": "address",
          "name": "_to",
          "type": "address"
        },
        {
          "internalType": "uint256",
          "name": "_tokenId",
          "type": "uint256"
        }
      ],
      "name": "transferFrom",
      "outputs": [],
      "stateMutability": "nonpayable",
      "type": "function"
    },
    {
      "inputs": [
        {
          "internalType": "address",
          "name": "newOwner",
          "type": "address"
        }
      ],
      "name": "transferOwnership",
      "outputs": [],
      "stateMutability": "nonpayable",
      "type": "function"
    },
    {
      "inputs": [],
      "name": "withdraw",
      "outputs": [],
      "stateMutability": "nonpayable",
      "type": "function"
    },
    {
      "inputs": [
        {
          "internalType": "uint256",
          "name": "",
          "type": "uint256"
        }
      ],
      "name": "zombieToOwner",
      "outputs": [
        {
          "internalType": "address",
          "name": "",
          "type": "address"
        }
      ],
      "stateMutability": "view",
      "type": "function"
    },
    {
      "inputs": [
        {
          "internalType": "uint256",
          "name": "",
          "type": "uint256"
        }
      ],
      "name": "zombies",
      "outputs": [
        {
          "internalType": "string",
          "name": "name",
          "type": "string"
        },
        {
          "internalType": "uint256",
          "name": "dna",
          "type": "uint256"
        },
        {
          "internalType": "uint32",
          "name": "level",
          "type": "uint32"
        },
        {
          "internalType": "uint32",
          "name": "readyTime",
          "type": "uint32"
        },
        {
          "internalType": "uint16",
          "name": "winCount",
          "type": "uint16"
        },
        {
          "internalType": "uint256",
          "name": "loseCount",
          "type": "uint256"
        }
      ],
      "stateMutability": "view",
      "type": "function"
    }
  ],
  "bytecode": "0x60806040526010600155600154600a6200001a919062000194565b6002556201518060035566038d7ea4c6800060085560006009556046600a553480156200004657600080fd5b50620000676200005b6200006d60201b60201c565b6200007560201b60201c565b62000317565b600033905090565b60008060009054906101000a900473ffffffffffffffffffffffffffffffffffffffff169050816000806101000a81548173ffffffffffffffffffffffffffffffffffffffff021916908373ffffffffffffffffffffffffffffffffffffffff1602179055508173ffffffffffffffffffffffffffffffffffffffff168173ffffffffffffffffffffffffffffffffffffffff167f8be0079c531659141344cd1fd0a4f28419497f9722a3daafe3b4186f6b6457e060405160405180910390a35050565b6000808291508390505b60018511156200018b57808604811115620001635762000162620002db565b5b6001851615620001735780820291505b808102905062000183856200030a565b945062000143565b94509492505050565b6000620001a182620002d1565b9150620001ae83620002d1565b9250620001dd7fffffffffffffffffffffffffffffffffffffffffffffffffffffffffffffffff8484620001e5565b905092915050565b600082620001f75760019050620002ca565b81620002075760009050620002ca565b81600181146200022057600281146200022b5762000261565b6001915050620002ca565b60ff84111562000240576200023f620002db565b5b8360020a9150848211156200025a5762000259620002db565b5b50620002ca565b5060208310610133831016604e8410600b84101617156200029b5782820a905083811115620002955762000294620002db565b5b620002ca565b620002aa848484600162000139565b92509050818404811115620002c457620002c3620002db565b5b81810290505b9392505050565b6000819050919050565b7f4e487b7100000000000000000000000000000000000000000000000000000000600052601160045260246000fd5b60008160011c9050919050565b61444380620003276000396000f3fe6080604052600436106101e35760003560e01c8063715018a611610102578063b88d4fde11610095578063e1fa763811610064578063e1fa7638146106f4578063e985e9c51461071d578063f2fde38b1461075a578063fb471bd514610783576101e3565b8063b88d4fde1461063c578063c39cbef114610665578063c87b56dd1461068e578063ccf670f8146106cb576101e3565b806395d89b41116100d157806395d89b4114610594578063a22cb465146105bf578063a592a451146105e8578063b2e6ceeb14610613576101e3565b8063715018a61461050057806376a18999146105175780637bff0a01146105405780638da5cb5b14610569576101e3565b806323b872dd1161017a578063528b7b8f11610149578063528b7b8f146104205780635f4623f11461045d5780636352211e1461048657806370a08231146104c3576101e3565b806323b872dd1461037a5780633ccfd60b146103a357806342842e0e146103ba5780634412e104146103e3576101e3565b80630ce90ec2116101b65780630ce90ec2146102b65780630d95e054146102d257806317a7f4cc1461030f5780632052465e14610338576101e3565b806301ffc9a7146101e857806306fdde0314610225578063081812fc14610250578063095ea7b31461028d575b600080fd5b3480156101f457600080fd5b5061020f600480360381019061020a9190613058565b6107ae565b60405161021c919061397d565b60405180910390f35b34801561023157600080fd5b5061023a6108e8565b6040516102479190613998565b60405180910390f35b34801561025c57600080fd5b50610277600480360381019061027291906130eb565b61097a565b60405161028491906138b0565b60405180910390f35b34801561029957600080fd5b506102b460048036038101906102af9190612f41565b610a5f565b005b6102d060048036038101906102cb91906130eb565b610b7d565b005b3480156102de57600080fd5b506102f960048036038101906102f49190612dfa565b610c85565b604051610306919061397d565b60405180910390f35b34801561031b57600080fd5b5061033660048036038101906103319190613168565b610cb4565b005b34801561034457600080fd5b5061035f600480360381019061035a91906130eb565b610de1565b604051610371969594939291906139ba565b60405180910390f35b34801561038657600080fd5b506103a1600480360381019061039c9190612e36565b610ee3565b005b3480156103af57600080fd5b506103b8610f63565b005b3480156103c657600080fd5b506103e160048036038101906103dc9190612e36565b610fc7565b005b3480156103ef57600080fd5b5061040a60048036038101906104059190612dd1565b610fe7565b604051610417919061395b565b60405180910390f35b34801561042c57600080fd5b50610447600480360381019061044291906130eb565b6111be565b60405161045491906138b0565b60405180910390f35b34801561046957600080fd5b50610484600480360381019061047f9190612dd1565b6111f1565b005b34801561049257600080fd5b506104ad60048036038101906104a891906130eb565b61123d565b6040516104ba91906138b0565b60405180910390f35b3480156104cf57600080fd5b506104ea60048036038101906104e59190612dd1565b61127a565b6040516104f79190613b22565b60405180910390f35b34801561050c57600080fd5b506105156112c3565b005b34801561052357600080fd5b5061053e60048036038101906105399190613168565b6112d7565b005b34801561054c57600080fd5b50610567600480360381019061056291906130aa565b61140b565b005b34801561057557600080fd5b5061057e611472565b60405161058b91906138b0565b60405180910390f35b3480156105a057600080fd5b506105a961149b565b6040516105b69190613998565b60405180910390f35b3480156105cb57600080fd5b506105e660048036038101906105e19190612f05565b61152d565b005b3480156105f457600080fd5b506105fd611709565b60405161060a9190613917565b60405180910390f35b34801561061f57600080fd5b5061063a600480360381019061063591906130eb565b61187a565b005b34801561064857600080fd5b50610663600480360381019061065e9190612e85565b611901565b005b34801561067157600080fd5b5061068c60048036038101906106879190613114565b611958565b005b34801561069a57600080fd5b506106b560048036038101906106b091906130eb565b611a9c565b6040516106c29190613998565b60405180910390f35b3480156106d757600080fd5b506106f260048036038101906106ed91906130eb565b611b4e565b005b34801561070057600080fd5b5061071b60048036038101906107169190613168565b611b60565b005b34801561072957600080fd5b50610744600480360381019061073f9190612dfa565b611dc8565b604051610751919061397d565b60405180910390f35b34801561076657600080fd5b50610781600480360381019061077c9190612dd1565b611f3b565b005b34801561078f57600080fd5b50610798611fbf565b6040516107a59190613917565b60405180910390f35b60007f80ac58cd000000000000000000000000000000000000000000000000000000007bffffffffffffffffffffffffffffffffffffffffffffffffffffffff1916827bffffffffffffffffffffffffffffffffffffffffffffffffffffffff1916148061087957507f5b5e139f000000000000000000000000000000000000000000000000000000007bffffffffffffffffffffffffffffffffffffffffffffffffffffffff1916827bffffffffffffffffffffffffffffffffffffffffffffffffffffffff1916145b806108e157507f01ffc9a7000000000000000000000000000000000000000000000000000000007bffffffffffffffffffffffffffffffffffffffffffffffffffffffff1916827bffffffffffffffffffffffffffffffffffffffffffffffffffffffff1916145b9050919050565b6060600b80546108f790613e90565b80601f016020809104026020016040519081016040528092919081815260200182805461092390613e90565b80156109705780601f1061094557610100808354040283529160200191610970565b820191906000526020600020905b81548152906001019060200180831161095357829003601f168201915b5050505050905090565b6000806006600084815260200190815260200160002060009054906101000a900473ffffffffffffffffffffffffffffffffffffffff169050600073ffffffffffffffffffffffffffffffffffffffff168173ffffffffffffffffffffffffffffffffffffffff161415610a23576040517f08c379a0000000000000000000000000000000000000000000000000000000008152600401610a1a90613ac2565b60405180910390fd5b600f600084815260200190815260200160002060009054906101000a900473ffffffffffffffffffffffffffffffffffffffff16915050919050565b806006600082815260200190815260200160002060009054906101000a900473ffffffffffffffffffffffffffffffffffffffff1673ffffffffffffffffffffffffffffffffffffffff163373ffffffffffffffffffffffffffffffffffffffff1614610acb57600080fd5b82600f600084815260200190815260200160002060006101000a81548173ffffffffffffffffffffffffffffffffffffffff021916908373ffffffffffffffffffffffffffffffffffffffff160217905550818373ffffffffffffffffffffffffffffffffffffffff163373ffffffffffffffffffffffffffffffffffffffff167f8c5be1e5ebec7d5bd14f71427d1e84f3dd0314c0f7b2291e5b200ac8c7c3b92560405160405180910390a4505050565b806006600082815260200190815260200160002060009054906101000a900473ffffffffffffffffffffffffffffffffffffffff1673ffffffffffffffffffffffffffffffffffffffff163373ffffffffffffffffffffffffffffffffffffffff1614610be957600080fd5b6008543414610bf757600080fd5b60048281548110610c31577f4e487b7100000000000000000000000000000000000000000000000000000000600052603260045260246000fd5b9060005260206000209060040201600201600081819054906101000a900463ffffffff1680929190610c6290613fcf565b91906101000a81548163ffffffff021916908363ffffffff160217905550505050565b60106020528160005260406000206020528060005260406000206000915091509054906101000a900460ff1681565b6000600760009054906101000a900473ffffffffffffffffffffffffffffffffffffffff1673ffffffffffffffffffffffffffffffffffffffff1663e98b7f4d836040518263ffffffff1660e01b8152600401610d119190613b22565b6101406040518083038186803b158015610d2a57600080fd5b505afa158015610d3e573d6000803e3d6000fd5b505050506040513d601f19601f82011682018060405250810190610d629190612f7d565b90919293949596979850909192939495969750909192939495965090919293949550909192939450909192935090919250909150905080915050610ddc83836040518060400160405280600581526020017f6b69747479000000000000000000000000000000000000000000000000000000815250612130565b505050565b60048181548110610df157600080fd5b9060005260206000209060040201600091509050806000018054610e1490613e90565b80601f0160208091040260200160405190810160405280929190818152602001828054610e4090613e90565b8015610e8d5780601f10610e6257610100808354040283529160200191610e8d565b820191906000526020600020905b815481529060010190602001808311610e7057829003601f168201915b5050505050908060010154908060020160009054906101000a900463ffffffff16908060020160049054906101000a900463ffffffff16908060020160089054906101000a900461ffff16908060030154905086565b806006600082815260200190815260200160002060009054906101000a900473ffffffffffffffffffffffffffffffffffffffff1673ffffffffffffffffffffffffffffffffffffffff163373ffffffffffffffffffffffffffffffffffffffff1614610f4f57600080fd5b339350610f5d8484846122f3565b50505050565b610f6b6124d1565b6000610f75611472565b905060004790508173ffffffffffffffffffffffffffffffffffffffff166108fc829081150290604051600060405180830381858888f19350505050158015610fc2573d6000803e3d6000fd5b505050565b610fe28383836040518060200160405280600081525061254f565b505050565b60606000600560008473ffffffffffffffffffffffffffffffffffffffff1673ffffffffffffffffffffffffffffffffffffffff1681526020019081526020016000205467ffffffffffffffff81111561106a577f4e487b7100000000000000000000000000000000000000000000000000000000600052604160045260246000fd5b6040519080825280602002602001820160405280156110985781602001602082028036833780820191505090505b5090507fb597e0eabc018227f8bfa3bc8d813f10bc48fc7cec0a542786e2fea325bd610660046040516110cb9190613939565b60405180910390a16000805b6004805490508110156111b3578473ffffffffffffffffffffffffffffffffffffffff166006600083815260200190815260200160002060009054906101000a900473ffffffffffffffffffffffffffffffffffffffff1673ffffffffffffffffffffffffffffffffffffffff1614156111a05780838381518110611185577f4e487b7100000000000000000000000000000000000000000000000000000000600052603260045260246000fd5b602002602001018181525050818061119c90613f86565b9250505b80806111ab90613f86565b9150506110d7565b508192505050919050565b60066020528060005260406000206000915054906101000a900473ffffffffffffffffffffffffffffffffffffffff1681565b6111f96124d1565b80600760006101000a81548173ffffffffffffffffffffffffffffffffffffffff021916908373ffffffffffffffffffffffffffffffffffffffff16021790555050565b60006006600083815260200190815260200160002060009054906101000a900473ffffffffffffffffffffffffffffffffffffffff169050919050565b6000600560008373ffffffffffffffffffffffffffffffffffffffff1673ffffffffffffffffffffffffffffffffffffffff168152602001908152602001600020549050919050565b6112cb6124d1565b6112d560006125aa565b565b816006600082815260200190815260200160002060009054906101000a900473ffffffffffffffffffffffffffffffffffffffff1673ffffffffffffffffffffffffffffffffffffffff163373ffffffffffffffffffffffffffffffffffffffff161461134357600080fd5b6014838160048281548110611381577f4e487b7100000000000000000000000000000000000000000000000000000000600052603260045260246000fd5b906000526020600020906004020160020160009054906101000a900463ffffffff1663ffffffff1610156113b457600080fd5b83600486815481106113ef577f4e487b7100000000000000000000000000000000000000000000000000000000600052603260045260246000fd5b9060005260206000209060040201600101819055505050505050565b6000600560003373ffffffffffffffffffffffffffffffffffffffff1673ffffffffffffffffffffffffffffffffffffffff168152602001908152602001600020541461145757600080fd5b60006114628261266e565b905061146e82826126b3565b5050565b60008060009054906101000a900473ffffffffffffffffffffffffffffffffffffffff16905090565b6060600c80546114aa90613e90565b80601f01602080910402602001604051908101604052809291908181526020018280546114d690613e90565b80156115235780601f106114f857610100808354040283529160200191611523565b820191906000526020600020905b81548152906001019060200180831161150657829003601f168201915b5050505050905090565b600073ffffffffffffffffffffffffffffffffffffffff168273ffffffffffffffffffffffffffffffffffffffff16141561159d576040517f08c379a000000000000000000000000000000000000000000000000000000000815260040161159490613a62565b60405180910390fd5b3373ffffffffffffffffffffffffffffffffffffffff168273ffffffffffffffffffffffffffffffffffffffff16141561160c576040517f08c379a000000000000000000000000000000000000000000000000000000000815260040161160390613a82565b60405180910390fd5b80601060003373ffffffffffffffffffffffffffffffffffffffff1673ffffffffffffffffffffffffffffffffffffffff16815260200190815260200160002060008473ffffffffffffffffffffffffffffffffffffffff1673ffffffffffffffffffffffffffffffffffffffff16815260200190815260200160002060006101000a81548160ff0219169083151502179055508173ffffffffffffffffffffffffffffffffffffffff163373ffffffffffffffffffffffffffffffffffffffff167f17307eab39ab6107e8899845ad3d59bd9653f200f220920489ca2b5937696c31836040516116fd919061397d565b60405180910390a35050565b60606004805480602002602001604051908101604052809291908181526020016000905b8282101561187157838290600052602060002090600402016040518060c001604052908160008201805461176090613e90565b80601f016020809104026020016040519081016040528092919081815260200182805461178c90613e90565b80156117d95780601f106117ae576101008083540402835291602001916117d9565b820191906000526020600020905b8154815290600101906020018083116117bc57829003601f168201915b50505050508152602001600182015481526020016002820160009054906101000a900463ffffffff1663ffffffff1663ffffffff1681526020016002820160049054906101000a900463ffffffff1663ffffffff1663ffffffff1681526020016002820160089054906101000a900461ffff1661ffff1661ffff1681526020016003820154815250508152602001906001019061172d565b50505050905090565b600f600082815260200190815260200160002060009054906101000a900473ffffffffffffffffffffffffffffffffffffffff1673ffffffffffffffffffffffffffffffffffffffff163373ffffffffffffffffffffffffffffffffffffffff16146118e557600080fd5b60006118f08261123d565b90506118fd8133846122f3565b5050565b61195185858585858080601f016020809104026020016040519081016040528093929190818152602001838380828437600081840152601f19601f8201169050808301925050505050505061254f565b5050505050565b816006600082815260200190815260200160002060009054906101000a900473ffffffffffffffffffffffffffffffffffffffff1673ffffffffffffffffffffffffffffffffffffffff163373ffffffffffffffffffffffffffffffffffffffff16146119c457600080fd5b6002838160048281548110611a02577f4e487b7100000000000000000000000000000000000000000000000000000000600052603260045260246000fd5b906000526020600020906004020160020160009054906101000a900463ffffffff1663ffffffff161015611a3557600080fd5b8360048681548110611a70577f4e487b7100000000000000000000000000000000000000000000000000000000600052603260045260246000fd5b90600052602060002090600402016000019080519060200190611a94929190612be9565b505050505050565b6060611aa782612904565b611ae6576040517f08c379a0000000000000000000000000000000000000000000000000000000008152600401611add90613b02565b60405180910390fd5b6000600d8054611af590613e90565b905011611b115760405180602001604052806000815250611b47565b600d600e6000848152602001908152602001600020604051602001611b3792919061383a565b6040516020818303038152906040525b9050919050565b611b566124d1565b8060088190555050565b816006600082815260200190815260200160002060009054906101000a900473ffffffffffffffffffffffffffffffffffffffff1673ffffffffffffffffffffffffffffffffffffffff163373ffffffffffffffffffffffffffffffffffffffff1614611bcc57600080fd5b600060048481548110611c08577f4e487b7100000000000000000000000000000000000000000000000000000000600052603260045260246000fd5b90600052602060002090600402019050600060048481548110611c54577f4e487b7100000000000000000000000000000000000000000000000000000000600052603260045260246000fd5b906000526020600020906004020190506000611c706064612970565b9050600a54811115611d5f5782600201600881819054906101000a900461ffff1680929190611c9e90613f5b565b91906101000a81548161ffff021916908361ffff1602179055505082600201600081819054906101000a900463ffffffff1680929190611cdd90613fcf565b91906101000a81548163ffffffff021916908363ffffffff16021790555050816003016000815480929190611d1190613f86565b9190505550611d5a8683600101546040518060400160405280600681526020017f7a6f6d6269650000000000000000000000000000000000000000000000000000815250612130565b611dc0565b826003016000815480929190611d7490613f86565b919050555081600201600881819054906101000a900461ffff1680929190611d9b90613f5b565b91906101000a81548161ffff021916908361ffff16021790555050611dbf836129cc565b5b505050505050565b60008073ffffffffffffffffffffffffffffffffffffffff168373ffffffffffffffffffffffffffffffffffffffff161415611e39576040517f08c379a0000000000000000000000000000000000000000000000000000000008152600401611e3090613aa2565b60405180910390fd5b600073ffffffffffffffffffffffffffffffffffffffff168273ffffffffffffffffffffffffffffffffffffffff161415611ea9576040517f08c379a0000000000000000000000000000000000000000000000000000000008152600401611ea090613aa2565b60405180910390fd5b601060008473ffffffffffffffffffffffffffffffffffffffff1673ffffffffffffffffffffffffffffffffffffffff16815260200190815260200160002060008373ffffffffffffffffffffffffffffffffffffffff1673ffffffffffffffffffffffffffffffffffffffff16815260200190815260200160002060009054906101000a900460ff16905092915050565b611f436124d1565b600073ffffffffffffffffffffffffffffffffffffffff168173ffffffffffffffffffffffffffffffffffffffff161415611fb3576040517f08c379a0000000000000000000000000000000000000000000000000000000008152600401611faa90613a42565b60405180910390fd5b611fbc816125aa565b50565b60606004805480602002602001604051908101604052809291908181526020016000905b8282101561212757838290600052602060002090600402016040518060c001604052908160008201805461201690613e90565b80601f016020809104026020016040519081016040528092919081815260200182805461204290613e90565b801561208f5780601f106120645761010080835404028352916020019161208f565b820191906000526020600020905b81548152906001019060200180831161207257829003601f168201915b50505050508152602001600182015481526020016002820160009054906101000a900463ffffffff1663ffffffff1663ffffffff1681526020016002820160049054906101000a900463ffffffff1663ffffffff1663ffffffff1681526020016002820160089054906101000a900461ffff1661ffff1661ffff16815260200160038201548152505081526020019060010190611fe3565b50505050905090565b826006600082815260200190815260200160002060009054906101000a900473ffffffffffffffffffffffffffffffffffffffff1673ffffffffffffffffffffffffffffffffffffffff163373ffffffffffffffffffffffffffffffffffffffff161461219c57600080fd5b6000600485815481106121d8577f4e487b7100000000000000000000000000000000000000000000000000000000600052603260045260246000fd5b906000526020600020906004020190506121f1816129ff565b6121fa57600080fd5b60025484612208919061402a565b93506000600285836001015461221e9190613cd9565b6122289190613d2f565b90506040516020016122399061385e565b60405160208183030381529060405280519060200120846040516020016122609190613823565b6040516020818303038152906040528051906020012014156122a357606360648261228b919061402a565b826122969190613d60565b6122a09190613cd9565b90505b6122e26040518060400160405280600681526020017f6e6f4e616d650000000000000000000000000000000000000000000000000000815250826126b3565b6122eb826129cc565b505050505050565b6123466001600560008573ffffffffffffffffffffffffffffffffffffffff1673ffffffffffffffffffffffffffffffffffffffff16815260200190815260200160002054612a2690919063ffffffff16565b600560008473ffffffffffffffffffffffffffffffffffffffff1673ffffffffffffffffffffffffffffffffffffffff168152602001908152602001600020819055506123dc6001600560008673ffffffffffffffffffffffffffffffffffffffff1673ffffffffffffffffffffffffffffffffffffffff16815260200190815260200160002054612a3c90919063ffffffff16565b600560008573ffffffffffffffffffffffffffffffffffffffff1673ffffffffffffffffffffffffffffffffffffffff16815260200190815260200160002081905550816006600083815260200190815260200160002060006101000a81548173ffffffffffffffffffffffffffffffffffffffff021916908373ffffffffffffffffffffffffffffffffffffffff160217905550808273ffffffffffffffffffffffffffffffffffffffff168473ffffffffffffffffffffffffffffffffffffffff167fddf252ad1be2c89b69c2b068fc378daa952ba7f163c4a11628f55a4df523b3ef60405160405180910390a4505050565b6124d9612a52565b73ffffffffffffffffffffffffffffffffffffffff166124f7611472565b73ffffffffffffffffffffffffffffffffffffffff161461254d576040517f08c379a000000000000000000000000000000000000000000000000000000000815260040161254490613ae2565b60405180910390fd5b565b61255a8484846122f3565b612565848483612a5a565b6125a4576040517f08c379a000000000000000000000000000000000000000000000000000000000815260040161259b90613a22565b60405180910390fd5b50505050565b60008060009054906101000a900473ffffffffffffffffffffffffffffffffffffffff169050816000806101000a81548173ffffffffffffffffffffffffffffffffffffffff021916908373ffffffffffffffffffffffffffffffffffffffff1602179055508173ffffffffffffffffffffffffffffffffffffffff168173ffffffffffffffffffffffffffffffffffffffff167f8be0079c531659141344cd1fd0a4f28419497f9722a3daafe3b4186f6b6457e060405160405180910390a35050565b600080826040516020016126829190613823565b6040516020818303038152906040528051906020012060001c9050600254816126ab919061402a565b915050919050565b60046040518060c00160405280848152602001838152602001600163ffffffff168152602001600354426126e79190613cd9565b63ffffffff168152602001600061ffff168152602001600081525090806001815401808255809150506001900390600052602060002090600402016000909190919091506000820151816000019080519060200190612747929190612be9565b506020820151816001015560408201518160020160006101000a81548163ffffffff021916908363ffffffff16021790555060608201518160020160046101000a81548163ffffffff021916908363ffffffff16021790555060808201518160020160086101000a81548161ffff021916908361ffff16021790555060a082015181600301555050600060016004805490506127e39190613d60565b9050336006600083815260200190815260200160002060006101000a81548173ffffffffffffffffffffffffffffffffffffffff021916908373ffffffffffffffffffffffffffffffffffffffff160217905550600560003373ffffffffffffffffffffffffffffffffffffffff1673ffffffffffffffffffffffffffffffffffffffff168152602001908152602001600020600081548092919061288790613f86565b91905055507f88f026aacbbecc90c18411df4b1185fd8d9be2470f1962f192bf84a27d0704b78184846040516128bf93929190613b3d565b60405180910390a17fb597e0eabc018227f8bfa3bc8d813f10bc48fc7cec0a542786e2fea325bd610660046040516128f79190613939565b60405180910390a1505050565b60008073ffffffffffffffffffffffffffffffffffffffff166006600084815260200190815260200160002060009054906101000a900473ffffffffffffffffffffffffffffffffffffffff1673ffffffffffffffffffffffffffffffffffffffff1614159050919050565b60006009600081548092919061298590613f86565b91905055508142336009546040516020016129a293929190613873565b6040516020818303038152906040528051906020012060001c6129c5919061402a565b9050919050565b600354426129da9190613cd9565b8160020160046101000a81548163ffffffff021916908363ffffffff16021790555050565b6000428260020160049054906101000a900463ffffffff1663ffffffff1611159050919050565b60008183612a349190613cd9565b905092915050565b60008183612a4a9190613d60565b905092915050565b600033905090565b6000808373ffffffffffffffffffffffffffffffffffffffff163b1415612a845760019050612be2565b8273ffffffffffffffffffffffffffffffffffffffff1663150b7a023386600480549050866040518563ffffffff1660e01b8152600401612ac894939291906138cb565b602060405180830381600087803b158015612ae257600080fd5b505af1925050508015612b1357506040513d601f19601f82011682018060405250810190612b109190613081565b60015b612b96573d8060008114612b43576040519150601f19603f3d011682016040523d82523d6000602084013e612b48565b606091505b50600081511415612b8e576040517f08c379a0000000000000000000000000000000000000000000000000000000008152600401612b8590613a22565b60405180910390fd5b805181602001fd5b63150b7a0260e01b7bffffffffffffffffffffffffffffffffffffffffffffffffffffffff1916817bffffffffffffffffffffffffffffffffffffffffffffffffffffffff1916149150505b9392505050565b828054612bf590613e90565b90600052602060002090601f016020900481019282612c175760008555612c5e565b82601f10612c3057805160ff1916838001178555612c5e565b82800160010185558215612c5e579182015b82811115612c5d578251825591602001919060010190612c42565b5b509050612c6b9190612c6f565b5090565b5b80821115612c88576000816000905550600101612c70565b5090565b6000612c9f612c9a84613ba0565b613b7b565b905082815260208101848484011115612cb757600080fd5b612cc2848285613e4e565b509392505050565b600081359050612cd9816143b1565b92915050565b600081359050612cee816143c8565b92915050565b600081519050612d03816143c8565b92915050565b600081359050612d18816143df565b92915050565b600081519050612d2d816143df565b92915050565b60008083601f840112612d4557600080fd5b8235905067ffffffffffffffff811115612d5e57600080fd5b602083019150836001820283011115612d7657600080fd5b9250929050565b600082601f830112612d8e57600080fd5b8135612d9e848260208601612c8c565b91505092915050565b600081359050612db6816143f6565b92915050565b600081519050612dcb816143f6565b92915050565b600060208284031215612de357600080fd5b6000612df184828501612cca565b91505092915050565b60008060408385031215612e0d57600080fd5b6000612e1b85828601612cca565b9250506020612e2c85828601612cca565b9150509250929050565b600080600060608486031215612e4b57600080fd5b6000612e5986828701612cca565b9350506020612e6a86828701612cca565b9250506040612e7b86828701612da7565b9150509250925092565b600080600080600060808688031215612e9d57600080fd5b6000612eab88828901612cca565b9550506020612ebc88828901612cca565b9450506040612ecd88828901612da7565b935050606086013567ffffffffffffffff811115612eea57600080fd5b612ef688828901612d33565b92509250509295509295909350565b60008060408385031215612f1857600080fd5b6000612f2685828601612cca565b9250506020612f3785828601612cdf565b9150509250929050565b60008060408385031215612f5457600080fd5b6000612f6285828601612cca565b9250506020612f7385828601612da7565b9150509250929050565b6000806000806000806000806000806101408b8d031215612f9d57600080fd5b6000612fab8d828e01612cf4565b9a50506020612fbc8d828e01612cf4565b9950506040612fcd8d828e01612dbc565b9850506060612fde8d828e01612dbc565b9750506080612fef8d828e01612dbc565b96505060a06130008d828e01612dbc565b95505060c06130118d828e01612dbc565b94505060e06130228d828e01612dbc565b9350506101006130348d828e01612dbc565b9250506101206130468d828e01612dbc565b9150509295989b9194979a5092959850565b60006020828403121561306a57600080fd5b600061307884828501612d09565b91505092915050565b60006020828403121561309357600080fd5b60006130a184828501612d1e565b91505092915050565b6000602082840312156130bc57600080fd5b600082013567ffffffffffffffff8111156130d657600080fd5b6130e284828501612d7d565b91505092915050565b6000602082840312156130fd57600080fd5b600061310b84828501612da7565b91505092915050565b6000806040838503121561312757600080fd5b600061313585828601612da7565b925050602083013567ffffffffffffffff81111561315257600080fd5b61315e85828601612d7d565b9150509250929050565b6000806040838503121561317b57600080fd5b600061318985828601612da7565b925050602061319a85828601612da7565b9150509250929050565b60006131b08383613676565b905092915050565b60006131c483836136ff565b905092915050565b60006131d883836137d0565b60208301905092915050565b6131ed81613dbc565b82525050565b6132046131ff82613dbc565b613ffc565b82525050565b600061321582613c1b565b61321f8185613c79565b93508360208202850161323185613bd1565b8060005b8581101561326d578484038952815161324e85826131a4565b945061325983613c52565b925060208a01995050600181019050613235565b50829750879550505050505092915050565b600061328a82613c26565b6132948185613c79565b9350836020820285016132a685613be1565b8060005b858110156132e1578484038952816132c285826131b8565b94506132cd83613c5f565b925060208a019950506001810190506132aa565b50829750879550505050505092915050565b60006132fe82613c31565b6133088185613c8a565b935061331383613bf6565b8060005b8381101561334457815161332b88826131cc565b975061333683613c6c565b925050600181019050613317565b5085935050505092915050565b61335a81613dce565b82525050565b600061336b82613c3c565b6133758185613c9b565b9350613385818560208601613e5d565b61338e81614117565b840191505092915050565b60006133a482613c47565b6133ae8185613cac565b93506133be818560208601613e5d565b6133c781614117565b840191505092915050565b60006133dd82613c47565b6133e78185613cbd565b93506133f7818560208601613e5d565b61340081614117565b840191505092915050565b600061341682613c47565b6134208185613cce565b9350613430818560208601613e5d565b80840191505092915050565b6000815461344981613e90565b6134538186613cac565b9450600182166000811461346e5760018114613480576134b3565b60ff19831686526020860193506134b3565b61348985613c06565b60005b838110156134ab5781548189015260018201915060208101905061348c565b808801955050505b50505092915050565b600081546134c981613e90565b6134d38186613cce565b945060018216600081146134ee57600181146134ff57613532565b60ff19831686528186019350613532565b61350885613c06565b60005b8381101561352a5781548189015260018201915060208101905061350b565b838801955050505b50505092915050565b6000613548603283613cbd565b91506135538261415c565b604082019050919050565b600061356b602683613cbd565b9150613576826141ab565b604082019050919050565b600061358e602383613cbd565b9150613599826141fa565b604082019050919050565b60006135b1601983613cbd565b91506135bc82614249565b602082019050919050565b60006135d4602c83613cbd565b91506135df82614272565b604082019050919050565b60006135f7600583613cce565b9150613602826142c1565b600582019050919050565b600061361a602c83613cbd565b9150613625826142ea565b604082019050919050565b600061363d602083613cbd565b915061364882614339565b602082019050919050565b6000613660602f83613cbd565b915061366b82614362565b604082019050919050565b600060c08301600083015184820360008601526136938282613399565b91505060208301516136a860208601826137d0565b5060408301516136bb6040860182613805565b5060608301516136ce6060860182613805565b5060808301516136e160808601826137b2565b5060a08301516136f460a08601826137d0565b508091505092915050565b600060c083016000808401858303600087015261371c838261343c565b9250506001840154905061372f81613ec2565b61373c60208701826137d0565b506002840154905061374d81613edc565b61375a6040870182613805565b5061376481613ef6565b6137716060870182613805565b5061377b81613f10565b61378860808701826137b2565b506003840154905061379981613ec2565b6137a660a08701826137d0565b50819250505092915050565b6137bb81613e06565b82525050565b6137ca81613e06565b82525050565b6137d981613e34565b82525050565b6137e881613e34565b82525050565b6137ff6137fa82613e34565b614020565b82525050565b61380e81613e3e565b82525050565b61381d81613e3e565b82525050565b600061382f828461340b565b915081905092915050565b600061384682856134bc565b915061385282846134bc565b91508190509392505050565b6000613869826135ea565b9150819050919050565b600061387f82866137ee565b60208201915061388f82856131f3565b60148201915061389f82846137ee565b602082019150819050949350505050565b60006020820190506138c560008301846131e4565b92915050565b60006080820190506138e060008301876131e4565b6138ed60208301866131e4565b6138fa60408301856137df565b818103606083015261390c8184613360565b905095945050505050565b60006020820190508181036000830152613931818461320a565b905092915050565b60006020820190508181036000830152613953818461327f565b905092915050565b6000602082019050818103600083015261397581846132f3565b905092915050565b60006020820190506139926000830184613351565b92915050565b600060208201905081810360008301526139b281846133d2565b905092915050565b600060c08201905081810360008301526139d481896133d2565b90506139e360208301886137df565b6139f06040830187613814565b6139fd6060830186613814565b613a0a60808301856137c1565b613a1760a08301846137df565b979650505050505050565b60006020820190508181036000830152613a3b8161353b565b9050919050565b60006020820190508181036000830152613a5b8161355e565b9050919050565b60006020820190508181036000830152613a7b81613581565b9050919050565b60006020820190508181036000830152613a9b816135a4565b9050919050565b60006020820190508181036000830152613abb816135c7565b9050919050565b60006020820190508181036000830152613adb8161360d565b9050919050565b60006020820190508181036000830152613afb81613630565b9050919050565b60006020820190508181036000830152613b1b81613653565b9050919050565b6000602082019050613b3760008301846137df565b92915050565b6000606082019050613b5260008301866137df565b8181036020830152613b6481856133d2565b9050613b7360408301846137df565b949350505050565b6000613b85613b96565b9050613b918282613f2a565b919050565b6000604051905090565b600067ffffffffffffffff821115613bbb57613bba6140e8565b5b613bc482614117565b9050602081019050919050565b6000819050602082019050919050565b60008190508160005260206000209050919050565b6000819050602082019050919050565b60008190508160005260206000209050919050565b600081519050919050565b600081549050919050565b600081519050919050565b600081519050919050565b600081519050919050565b6000602082019050919050565b6000600482019050919050565b6000602082019050919050565b600082825260208201905092915050565b600082825260208201905092915050565b600082825260208201905092915050565b600082825260208201905092915050565b600082825260208201905092915050565b600081905092915050565b6000613ce482613e34565b9150613cef83613e34565b9250827fffffffffffffffffffffffffffffffffffffffffffffffffffffffffffffffff03821115613d2457613d2361405b565b5b828201905092915050565b6000613d3a82613e34565b9150613d4583613e34565b925082613d5557613d5461408a565b5b828204905092915050565b6000613d6b82613e34565b9150613d7683613e34565b925082821015613d8957613d8861405b565b5b828203905092915050565b600061ffff82169050919050565b6000819050919050565b600063ffffffff82169050919050565b6000613dc782613e14565b9050919050565b60008115159050919050565b60007fffffffff0000000000000000000000000000000000000000000000000000000082169050919050565b600061ffff82169050919050565b600073ffffffffffffffffffffffffffffffffffffffff82169050919050565b6000819050919050565b600063ffffffff82169050919050565b82818337600083830152505050565b60005b83811015613e7b578082015181840152602081019050613e60565b83811115613e8a576000848401525b50505050565b60006002820490506001821680613ea857607f821691505b60208210811415613ebc57613ebb6140b9565b5b50919050565b6000613ed5613ed083614135565b613da2565b9050919050565b6000613eef613eea83614135565b613dac565b9050919050565b6000613f09613f0483614142565b613dac565b9050919050565b6000613f23613f1e8361414f565b613d94565b9050919050565b613f3382614117565b810181811067ffffffffffffffff82111715613f5257613f516140e8565b5b80604052505050565b6000613f6682613e06565b915061ffff821415613f7b57613f7a61405b565b5b600182019050919050565b6000613f9182613e34565b91507fffffffffffffffffffffffffffffffffffffffffffffffffffffffffffffffff821415613fc457613fc361405b565b5b600182019050919050565b6000613fda82613e3e565b915063ffffffff821415613ff157613ff061405b565b5b600182019050919050565b60006140078261400e565b9050919050565b600061401982614128565b9050919050565b6000819050919050565b600061403582613e34565b915061404083613e34565b9250826140505761404f61408a565b5b828206905092915050565b7f4e487b7100000000000000000000000000000000000000000000000000000000600052601160045260246000fd5b7f4e487b7100000000000000000000000000000000000000000000000000000000600052601260045260246000fd5b7f4e487b7100000000000000000000000000000000000000000000000000000000600052602260045260246000fd5b7f4e487b7100000000000000000000000000000000000000000000000000000000600052604160045260246000fd5b6000601f19601f8301169050919050565b60008160601b9050919050565b60008160001c9050919050565b60008160201c9050919050565b60008160401c9050919050565b7f4552433732313a207472616e7366657220746f206e6f6e20455243373231526560008201527f63656976657220696d706c656d656e7465720000000000000000000000000000602082015250565b7f4f776e61626c653a206e6577206f776e657220697320746865207a65726f206160008201527f6464726573730000000000000000000000000000000000000000000000000000602082015250565b7f4552433732313a20617070726f766520746f20746865207a65726f206164647260008201527f6573730000000000000000000000000000000000000000000000000000000000602082015250565b7f4552433732313a20617070726f766520746f2063616c6c657200000000000000600082015250565b7f4552433732313a206f70657261746f7220717565727920666f72206e6f6e657860008201527f697374656e7420746f6b656e0000000000000000000000000000000000000000602082015250565b7f6b69747479000000000000000000000000000000000000000000000000000000600082015250565b7f4552433732313a20617070726f76656420717565727920666f72206e6f6e657860008201527f697374656e7420746f6b656e0000000000000000000000000000000000000000602082015250565b7f4f776e61626c653a2063616c6c6572206973206e6f7420746865206f776e6572600082015250565b7f4552433732314d657461646174613a2055524920717565727920666f72206e6f60008201527f6e6578697374656e7420746f6b656e0000000000000000000000000000000000602082015250565b6143ba81613dbc565b81146143c557600080fd5b50565b6143d181613dce565b81146143dc57600080fd5b50565b6143e881613dda565b81146143f357600080fd5b50565b6143ff81613e34565b811461440a57600080fd5b5056fea26469706673582212204949456e005fa55819e61d89e262fc7791dd6472a99c051c1f1735cab862e37164736f6c63430008040033",
  "linkReferences": {},
  "deployedLinkReferences": {}
}